:100000000C942A000C94C0000C943C000C943C000E
:100010000C943C000C943C000C943C000C943C0070
:100020000C943C000C943C000C943C000C943C0060
:100030000C943C000C941E010C943C000C943C006D
:100040000C943C000C943C000C943C000C943C0040
:100050000C943C0011241FBECFE5D8E0DEBFCDBF1D
:1000600020E0A0E6B0E001C01D92A336B207E1F7A0
:100070000E9405020C9458020C94000081E683BF94
:10008000BB9A08952FEF829FC001112464E670E0AF
:100090000E940A026CBF089581E685BD8F9A08957B
:1000A0002FEF829FC001112464E670E00E940A02D3
:1000B00063BD08958AB38F608ABB0E943E000E9490
:1000C0004C000895CF93C62F811104C08BB38C7F51
:1000D0008BBB0CC0853628F4D89AD9980E94420070
:1000E00005C0D99AD89884560E944200C11104C014
:1000F0008BB3837F8BBB0EC0C53630F4DA9ADB98A6
:100100008C2F0E94500006C0DB9ADA988CE98C0F85
:100110000E945000CF91089582E08BB988E98AB996
:1001200086E880BD8CE089B910BC08955D9BFECF48
:100130008CB90895CF93DF93EC018881882331F047
:1001400021960E94960089918111FBCFDF91CF917A
:100150000895AC011616170664F4FC019C01260FE5
:10016000371F5F9BFECF9CB19193E217F307C9F74E
:1001700002C060E070E0FA01E60FF71F10820895F8
:100180001F920F920FB60F9211242F933F934F930C
:100190005F936F937F938F939F93AF93BF93EF93EF
:1001A000FF9360E080E00E9462002FE38DE093E027
:1001B000215080409040E1F700C0000066E48FEAE3
:1001C0000E9462002FE788E391E021508040904038
:1001D000E1F700C0000080916000682F8B5F0E94F3
:1001E00062002FE38DE093E0215080409040E1F7E2
:1001F00000C0000060E080E00E9462002FE986E815
:1002000091E0215080409040E1F700C000006091F3
:100210006200809161000E946200FF91EF91BF91A6
:10022000AF919F918F917F916F915F914F913F918E
:100230002F910F900FBE0F901F9018951F920F9245
:100240000FB60F9211240F931F932F933F934F9349
:100250005F936F937F938F939F93AF93BF93EF932E
:10026000FF93CF93DF93CDB7DEB76097DEBFCDBFEF
:100270008CB18936B1F485B7836085BF63E070E0E7
:10028000CE0101960E94A900CE0101960E94320281
:10029000809360000E945A0089E68CB98AE08CB98C
:1002A00099C0833711F563E070E0CE0101960E949A
:1002B000A900CE0101960E949A00CE0101960E94EB
:1002C00032029BB790649BBF04E6080F15E0180F3D
:1002D000602F812F0E9462000093620010936100E2
:1002E00083E78CB98AE08CB975C08A3781F460E005
:1002F00080E00E94620010926200109261008BB751
:100300008F7B8BBF8AE78CB98AE08CB963C0823659
:1003100009F58BB780648BBF63E070E0CE01019676
:100320000E94A900CE0101960E949A00CE0101967A
:100330000E943202182F09E6080F682F802F0E94B2
:100340006200109362000093610082E68CB98AE03B
:100350008CB940C08C36F9F48BB780648BBF63E0F6
:1003600070E0CE0101960E94A900CE0101960E9484
:100370009A00CE0101960E943202182F682F80E069
:100380000E946200109362001092610082E68CB9B4
:100390008AE08CB91FC08237E9F48BB780648BBFC9
:1003A00063E070E0CE0101960E94A900CE010196A3
:1003B0000E949A00CE0101960E943202182F60E03E
:1003C0000E946200109262001093610082E68CB974
:1003D0008AE08CB960960FB6F894DEBF0FBECDBF31
:1003E000DF91CF91FF91EF91BF91AF919F918F914D
:1003F0007F916F915F914F913F912F911F910F913D
:100400000F900FBE0F901F9018951BBA0E948C0082
:100410007894FFCF97FB072E16F4009407D077FD52
:1004200009D00E941E0207FC05D03EF490958195EC
:100430009F4F0895709561957F4F0895AA1BBB1B30
:1004400051E107C0AA1FBB1FA617B70710F0A61BD4
:10045000B70B881F991F5A95A9F780959095BC01F5
:10046000CD010895FC0188279927E8942191203235
:10047000E9F3293010F02E30C8F32B3241F02D3241
:1004800039F4689404C00E945002820F911D21919A
:1004900020532A30C0F31EF4909581959F4F089504
:1004A0007AE0979F902D879F802D910D11240895BC
:0404B000F894FFCFEE
:00000001FF
