:100000000C942A000C943E000C943C000C943C0090
:100010000C943C000C943C000C943C000C943C0070
:100020000C943C000C943C000C943C000C943C0060
:100030000C943C000C943C000C943C000C943C0050
:100040000C943C000C943C000C943C000C943C0040
:100050000C943C0011241FBECFE5D4E0DEBFCDBF21
:1000600020E0A0E6B0E001C01D92A436B207E1F79F
:100070000E9471000C94CD000C9400001F920F920E
:100080000FB60F9211248F939F93809160009091EF
:100090006100019771F48CB59DB5909363008093D6
:1000A00062001EBC1DBC1CBC10926100109260005E
:1000B00011C08091600090916100892B59F41DBCA2
:1000C0001CBC8EB581608EBD81E090E09093610094
:1000D000809360009F918F910F900FBE0F901F90A3
:1000E00018958FEF8ABB1BBA83EF81BB8BB78064F7
:1000F0008BBF85B7816085BF1FBC78942AE330E051
:1001000041E0909A85E08A95F1F7909887EA91E628
:100110000197F1F700C000008091620090916300A8
:10012000B9010E94A500CB01770FAA0BBB0B4F971B
:10013000A105B10510F44BBB01C01BBA87EA91E6DB
:100140000197F1F700C00000DCCF97FB072E16F4F3
:10015000009407D077FD09D00E94B90007FC05D0B4
:100160003EF4909581959F4F0895709561957F4FCE
:100170000895AA1BBB1B51E107C0AA1FBB1FA617EE
:10018000B70710F0A61BB70B881F991F5A95A9F740
:0E01900080959095BC01CD010895F894FFCFA5
:00000001FF
